S01800005333324B5F4E4E5F4B4C535F303130332E73726563A2
S315000000000030002011040000013000000D30000017
S315000000101930000025300000313000003D3000006E
S315000000204930000055300000613000006D3000009E
S315000000307930000085300000913000009D300000CE
S31500000040A9300000B5300000C1300000CD300000FE
S31500000050D9300000E5300000F1300000FD3000002E
S315000000600931000015310000213100002D3100005A
S315000000703931000045310000513100005D3100008A
S315000000806931000075310000813100008D310000BA
S3150000009099310000A5310000B1310000BD310000EA
S315000000A0C9310000D5310000E1310000ED3100001A
S315000000B0F931000005320000113200001D32000047
S315000000C02932000035320000413200004D32000076
S315000000D05932000065320000713200007D320000A6
S315000000E08932000095320000A1320000AD320000D6
S315000000F0B9320000C5320000D1320000DD32000006
S31500000100E9320000F5320000013300000D33000033
S315000001101933000025330000313300003D33000061
S315000001204933000055330000613300006D33000091
S315000001307933000085330000913300009D330000C1
S31500000140A9330000B5330000C1330000CD330000F1
S31500000150D9330000E5330000F1330000FD33000021
S315000001600934000015340000213400002D3400004D
S315000001703934000045340000513400005D3400007D
S315000001806934000075340000813400008D340000AD
S3150000019099340000A5340000B1340000BD340000DD
S315000001A0C9340000D5340000E1340000ED3400000D
S315000001B0F934000005350000113500001D3500003A
S315000001C02935000035350000413500004D35000069
S315000001D05935000065350000713500007D35000099
S315000001E08935000095350000A1350000AD350000C9
S315000001F0B9350000C5350000D1350000DD350000F9
S31500000200E9350000F5350000013600000D36000026
S315000002101936000025360000313600003D36000054
S315000002204936000055360000613600006D36000084
S315000002307936000085360000913600009D360000B4
S31500000240A9360000B5360000C1360000CD360000E4
S31500000250D9360000E5360000F1360000FD36000014
S315000002600937000015370000213700002D37000040
S315000002703937000045370000513700005D37000070
S315000002806937000075370000813700008D370000A0
S3150000029099370000A5370000B1370000BD370000D0
S315000002A0C9370000D5370000E1370000ED37000000
S315000002B0F937000005380000113800001D3800002D
S315000002C02938000035380000413800004D3800005C
S315000002D05938000065380000713800007D3800008C
S315000002E08938000095380000A1380000AD380000BC
S315000002F0B9380000C5380000D1380000DD380000EC
S31500000300E9380000F5380000013900000D39000019
S315000003101939000025390000313900003D39000047
S315000003204939000055390000613900006D39000077
S315000003307939000085390000913900009D390000A7
S31500000340A9390000B5390000C1390000CD390000D7
S31500000350D9390000E5390000F1390000FD39000007
S31500000360093A0000153A0000213A00002D3A000033
S31500000370393A0000453A0000513A00005D3A000063
S31500000380693A0000753A0000813A00008D3A000093
S31500000390993A0000A53A0000B13A0000BD3A0000C3
S315000003A0C93A0000D53A0000E13A0000ED3A0000F3
S315000003B0F93A0000053B0000113B00001D3B000020
S315000003C0293B0000353B0000413B00004D3B00004F
S315000003D0593B0000653B0000713B00007D3B00007F
S315000003E0893B0000953B0000A13B0000AD3B0000AF
S315000003F0B93B0000C53B0000D13B0000FFFFFFFFFB
S31500000400FFFFFFFFFFFFFFFFFFFFFFFFFE7FFFFF77
S3150000041072B610490F4A0F4B0E4C0E4D0D4E0D4F36
S31500000420B846B946BA46BB46BC460B490B4A521AB1
S31500000430013A05DD0020042308601944043AFBDA7A
S3150000044007488546074880470748804762B600F058
S31500000450A7F8FEE70000000000D0FF1F00300020D4
S31500000460003000207105000071040000FFF7FEBF98
S3150000047080B48BB000AF324B3B62324B7B61324B68
S31500000480FB60324BFB61324B3B61324BBB60324B04
S31500000490BB61324B7B6009E07B691A783B6A1A7054
S315000004A03B6A01333B627B6901337B61FA687B6996
S315000004B09A42F1D109E03B691A78FB691A70FB6927
S315000004C00133FB613B6901333B61BA683B699A4280
S315000004D0F1D105E0BB6900221A70BB690133BB612B
S315000004E07A68BB699A42F5D10023FB701C4A1D4B02
S315000004F09A4219D000237B620AE01A4A7B6A52F8B4
S31500000500232017497B6A41F823207B6A01337B62EB
S31500000510154B9B087A6A9A42EFD3FB78134A52F836
S3150000052023300F4A1A6005E0FB78104A52F8233050
S315000005300C4A1A602C37BD465DF8047B704700BF35
S3150000054000D4FF1FDCAD0000E0AD000004D4FF1FA7
S31500000550E0AD0000E0AD000000E0FF1FC4E3FF1FB8
S3150000056000D0FF1F000000000004000000D4FF1FA1
S3150000057080B400AF084B094A5A60074B5B68064BCC
S3150000058042F220121A60044B4FF6FF729A60BD4683
S315000005905DF8047B704700BF0020054020C528D9C0
S315000005A080B500AF054B93F85630FF2B02D100F013
S315000005B071F901E003F024FD184680BD002000001B
S315000005C080B400AF084B094A5A60074B4FF6FF72DA
S315000005D09A60054A044B1B6823F080031360BD46EE
S315000005E05DF8047B704700BF0020054020C528D970
S315000005F080B400AF0F4B104A5A6000BF0D4B1B680A
S3150000060003F40063002BF9D00A4B4FF6FF729A6091
S31500000610084A084B1B6843F42873136000BF054B58
S315000006201B6803F48063002BF9D0BD465DF8047B9C
S31500000630704700BF0020054020C528D980B400AF10
S3150000064072B6044B044A5A6062B6BD465DF8047B36
S31500000650704700BF0020054002A680B480B400AFFA
S31500000660BD465DF8047B704780B485B000AF786006
S31500000670114B5B69FB60FB6803F47023002B07D00A
S315000006800D4A0D4B5B6943F47023536119230CE04B
S31500000690FB6803F40013002B01D10A2305E0064B87
S315000006A0DB69DAB27B681A70002318461437BD4638
S315000006B05DF8047B704700BF00B0064080B483B08D
S315000006C000AF0346FB71094B5B6903F40003002B83
S315000006D001D10B2303E0054AFB79D36100231846B9
S315000006E00C37BD465DF8047B704700BF00B006407E
S315000006F080B400AF72B6574B574A5A60554B4FF607
S31500000700FF729A60534A534B1B6823F080031360B1
S31500000710524B40F20112C3F80421504B2422C3F875
S31500000720082100BF4D4BD3F8003103F40003002B22
S31500000730F8D14A4B0122C3F8002100BF474BD3F83A
S31500000740003103F08073002BF8D000BF434BD3F881
S31500000750003603F40003002BF8D1404B0022C3F807
S3150000076000263E4B40F20222C3F804263B4B4FF4D0
S31500000770C012C3F8082600BF384BD3F8003603F47E
S315000007800003002BF8D1354B0122C3F8002600BF29
S31500000790324BD3F8003603F08073002BF8D02F4B82
S315000007A02F4A5A612D4B1B692E4A2E4BD3F8243102
S315000007B043F08043C2F824312A4A2A4BD3F8283121
S315000007C043F08043C2F82831264A264BD3F82C3111
S315000007D043F08043C2F82C31224A224BD3F8303101
S315000007E043F08043C2F830311E4A1E4BD3F83431F1
S315000007F043F08043C2F834311B4B4FF400725A6207
S315000008001A4A537D43F002035375174B4FF4007297
S315000008101A62164A537D6FF300035375114A114B42
S31500000820D3F8AC3123F08043C2F8AC310D4A0D4BFE
S31500000830D3F8AC3143F08243C2F8AC310C4B0D4ACD
S315000008401A610B4B4FF440229A61BD465DF8047B5A
S31500000850704700BF0020054020C528D9004006404B
S31500000860120001060050064000B0044080F00F4020
S3150000087000B006401A00000F80B400AF034B044AD4
S315000008805A60BD465DF8047B704700BF00200540F6
S3150000089002A680B480B592B000AF00237B6300232C
S315000008A0FB62002387F83930002387F82B300023BA
S315000008B087F84730002387F84630002387F845300D
S315000008C000233B640023FB63002387F83B300023AF
S315000008D087F83A30FFF70CFFBA4BBB48BB491A46BC
S315000008E000F03EFAFFF7C8FFFFF7C6FFFB6A0133C9
S315000008F0FB62FB6AB64A934205D9002387F8273084
S31500000900002387F83A3007F12B031846FFF7ACFEB1
S31500000910034687F8393097F83930002B40F0B58117
S315000009200023FB6297F83A30002B07D1002387F8A3
S31500000930273000237B75012387F83A3097F8273054
S31500000940122B0ED897F8273097F82B2007F148017D
S315000009500B4403F8342C97F827300133DBB287F8C1
S3150000096027307B7D102B01D910237B757B7D0333CC
S315000009707B6397F827301A467B6B9A42C0F08581D5
S31500000980002387F83A30012387F84530002387F89B
S3150000099046307B7D02333B6300237B630DE07B6B3C
S315000009A007F14802134413F8342C97F846301344E1
S315000009B087F846307B6B01337B637A6B3B6B9A42DD
S315000009C0EDD37B7D07F14802134413F8323C97F8C8
S315000009D046209A4205D0E7233B70002387F847302C
S315000009E005E03B7D87F8473097F847303B7097F82E
S315000009F04730112B09D1032387F845300123BB70FB
S31500000A000123FB7002233B7112E197F84730B12BAB
S31500000A1046D1BB7D012B11D14FF400533B6408E056
S31500000A20386C00F0A9F903463B633B6C03F50063A1
S31500000A303B643B6CB3F5405FF2D328E0BB7D022BF1
S31500000A4011D14FF440533B6408E0386C00F094F940
S31500000A5003463B633B6C03F500633B643B6CB3F5B9
S31500000A60003FF2D313E0BB7D032B10D14FF40053AC
S31500000A703B6408E0386C00F07FF903463B633B6C4F
S31500000A8003F500633B643B6CB3F5003FF2D33B6B6D
S31500000A90002B02D00023BB70CAE00123BB70C7E065
S31500000AA097F84730B22B41D197F82230012B0DD160
S31500000AB0BB7D1A06FB7D1B041A433B7E1B021343B8
S31500000AC07A7E134303F500533B640CE0BB7D1A06A4
S31500000AD0FB7D1B041A433B7E1B0213437A7E1343A2
S31500000AE003F540533B6400233B630CE03B6B3A6BDE
S31500000AF0043207F148010A4412F8321C354AD1542F
S31500000B003B6B01333B633B6B072BEFD9386C3149A9
S31500000B10082200F039F903463B633B6B002B02D0F9
S31500000B200023BB7084E00123BB7081E097F8473057
S31500000B30B52B0CD1BB7D1B061A46FB7D1B0413434C
S31500000B403A7E120213437A7E1343FB6370E097F8F2
S31500000B504730B32B59D1002387F84630BB7D012B94
S31500000B6012D14FF400533B6409E03B6C1A7897F8B6
S31500000B704630134487F846303B6C01333B643B6C8C
S31500000B80B3F5405FF1D335E0BB7D022B12D14FF4B4
S31500000B9040533B6409E03B6C1A7897F8463013449F
S31500000BA087F846303B6C01333B643A6CFB6B9A42E8
S31500000BB0F1D31FE0BB7D032B1CD14FF400533B64E4
S31500000BC014E000BFC403000000DAFF1F001A000093
S31500000BD0A086010000C0FF1F3B6C1A7897F84630CC
S31500000BE0134487F846303B6C01333B643A6CFB6B2D
S31500000BF09A42F1D3FB7D97F846209A4202D101230F
S31500000C00BB7015E00023BB7012E097F84730B42B99
S31500000C1009D100F061F82F4B002283F8562072B6F6
S31500000C2000F07AF8FEE7002387F84530E3233B70AF
S31500000C3097F845307B70002387F8463097F84530A3
S31500000C4002333B6300237B630DE07B6B07F14802B5
S31500000C50134413F8482C97F84630134487F8463067
S31500000C607B6B01337B637A6B3B6B9A42EDD397F8D0
S31500000C70453007F14802134497F8462003F8462CFE
S31500000C800023FB74012387F83B30FFF7F5FD97F847
S31500000C903B30002B1CD0FB7C07F14802134413F8B1
S31500000CA0483C1846FFF70AFD034687F8393097F89F
S31500000CB03930002B0CD1FA7C7B780233DBB29A42B6
S31500000CC002D3002387F83B30FB7C0133DBB2FB7495
S31500000CD00AE600BF00C0FF1F80B483B000AF4FF428
S31500000CE000537B6000233B600BE07B685A1C7A60F4
S31500000CF01978084A3B6813440A461A703B68013360
S31500000D003B603B68B3F5806FEFD30C37BD465DF8AB
S31500000D10047B704700C0FF1F80B500AFFFF750FC93
S31500000D200B4B0C480C491A4600F01AF84FF40050C9
S31500000D3000F022F84FF4205000F01EF84FF4005057
S31500000D4006494FF4806200F01FF8FFF751FC80BDA2
S31500000D50C403000000DAFF1F001A000000C0FF1FD6
S31500000D6010B5431E0A44914204D011F8014B03F812
S31500000D70014FF8E710BD000001B40248844601BCEB
S31500000D80604700BFE5DCFF1F01B40248844601BC92
S30D00000D90604700BF31DAFF1FC6
S31500001A0080B400AF074B084A1A60084B2022C3F87F
S31500001A100024064B2022C3F80424BD465DF8047B4F
S31500001A20704700BF002008E001000085001000405C
S31500001A3080B58CB000AFF860B9601346FB80002318
S31500001A40FB85FB88DB08FB83FB88DBB203F007031F
S31500001A507B777B7F9B08DBB27B83FB68BB62BB68C3
S31500001A607B62FB6803F00303002B04D043F20103FF
S31500001A70FB85FB8D3EE000233B621AE07B6A1A1D64
S31500001A807A621B687B617B6A1A1D7A621B683B61FE
S31500001A90B86A79693A6900F0A7F80346FB85FB8DB9
S31500001AA0002B00D025E0BB6A0833BB623B6A0133DA
S31500001AB03B62FA8B3B6A9A42E0DC00233B6214E00D
S31500001AC07B6A1A1D7A621B687B61B86A796900F0C5
S31500001AD015F80346FB85FB8D002B00D009E0BB6A99
S31500001AE00433BB623B6A01333B627A8B3B6A9A42A0
S31500001AF0E6DCFB8D18463037BD4680BD80B584B028
S31500001B0000AF786039600023FB817B6803F0030334
S31500001B10002B04D043F20103FB81FB895DE0314BCE
S31500001B2070221A702F4B0722DA712E4A7B681B0C23
S31500001B30DBB293712B4A7B681B0ADBB25371294BCC
S31500001B407A68D2B21A71274A3B681B0EDBB2D3728F
S31500001B50244A3B681B0CDBB29372224A3B681B0A81
S31500001B60DBB253721F4B3A68D2B21A721D4BFF2278
S31500001B70DA731C4BFF229A731A4BFF225A73194BC6
S31500001B80FF221A73012000F003F9164B1B78DBB213
S31500001B9003F02003002B05D0FB8943F4405343F0A8
S31500001BA00803FB810F4B1B78DBB203F01003002BFD
S31500001BB005D0FB8943F4405343F01003FB81094BE6
S31500001BC01B78DBB203F00103002B05D0FB8943F43D
S31500001BD0405343F01103FB81FB8918461037BD467D
S31500001BE080BD00BF0000024080B586B000AFF8603F
S31500001BF0B9607A600023FB82FB6803F00303002BC5
S31500001C0004D043F20103FB82FB8A64E0344B70226A
S31500001C101A70334B0722DA71314AFB681B0CDBB2B0
S31500001C2093712F4AFB681B0ADBB253712C4BFA687F
S31500001C30D2B21A712A4ABB681B0EDBB2D372284A8B
S31500001C40BB681B0CDBB29372254ABB681B0ADBB26E
S31500001C505372234BBA68D2B21A72214A7B681B0EA2
S31500001C60DBB2D3731E4A7B681B0CDBB293731C4A30
S31500001C707B681B0ADBB25373194B7A68D2B21A73AC
S31500001C80012000F085F8164B1B78DBB203F0200329
S31500001C90002B05D0FB8A43F4405343F00803FB8234
S31500001CA00F4B1B78DBB203F01003002B05D0FB8A29
S31500001CB043F4405343F01003FB82094B1B78DBB21D
S31500001CC003F00103002B05D0FB8A43F4405343F095
S31500001CD01103FB82FB8A18461837BD4680BD00BF3C
S31500001CE00000024080B584B000AF78600023FB811D
S31500001CF07B6803F00303002B04D043F20103FB814E
S31500001D00FB893EE0214B70221A70204B0922DA71C2
S31500001D101E4A7B681B0CDBB293711C4A7B681B0A4C
S31500001D20DBB25371194B7A68D2B21A71012000F0F6
S31500001D302FF8164B1B78DBB203F02003002B05D0DF
S31500001D40FB8943F4405343F00803FB810F4B1B7898
S31500001D50DBB203F01003002B05D0FB8943F440539C
S31500001D6043F01003FB81094B1B78DBB203F0010340
S31500001D70002B05D0FB8943F4405343F01103FB814C
S31500001D80FB8918461037BD4680BD00BF00000240E3
S31500001D9080B483B000AF0346FB71094B80221A70F2
S31500001DA0FB79002B07D000BF054B1B78DBB2DBB2FB
S31500001DB05BB2002BF8DA0C37BD465DF8047B704742
S30900001DC000000240D7
S315000020004B4C53373231384E627A62621726039749
S315000020100206000101060C00004800020050000004
S3150000202000000000025801990200020002000200AE
S315000020300200020064646400556E5A643232230062
S315000020401ED8460050326E50555AEC145000143CBF
S3150000205000000117027400000000000000000000EC
S31500002060000000000000000000000000000000006A
S315000020700000000000000000000000000000000A50
S3150000208002005F020A461E140014500003E80FA067
S31500002090643264326432140007D0003C000003E866
S315000020A000320000000A0000000000000000000AE4
S315000020B00505010001F4000A7FFF05DC001E7FFF15
S315000020C0000000000000019000C807D0003C138803
S315000020D00064000000000000000000000000000096
S315000020E000000000000000000000000000000000EA
S315000020F00000000000000000000000000000006476
S3150000210002005F020A461E140014500003E80FA0E6
S31500002110643264326432140007D0003C000003E8E5
S3150000212000320000000A0000000000000000000A63
S315000021300505010001F4000A7FFF05DC001E7FFF94
S31500002140000000000000019000C807D0003C138882
S315000021500064000000000000000000000000000015
S315000021600000000000000000000000000000000069
S3150000217000000000000000000000000000000064F5
S315000021800033002800EA0DAC00BA14B400000000C9
S31500002190000000000800826E640002004000000299
S315000021A01FC101FC019A03CC00320504060203019B
S315000021B005020601000000000000000000000064A7
S315000021C00033002800EA0DAC00BA14B40000000089
S315000021D0000000000800826E640002004000000259
S315000021E01FC101FC019A03CC00320504060203015B
S315000021F00502060100000000000000000000006467
S31500002200640064005F005A00550050004B00460011
S315000022103C00320028001E001400140014001400B4
S3150000222032003200320030002D00280023001E004C
S31500002230190014000F000A000A000A000A000A002A
S315000022400500050005000500050005000500050060
S315000022500500050005000500050005000500050050
S3150000226032003200320030002D00280023001E000C
S31500002270190014000F000A000A000A000A000A00EA
S31500002280581B581B581B4C1D401F28231027EC2C8D
S31500002290C832A4386842384A384A384A384A384A2E
S315000022A03C003C003C00410046004B0050005500FD
S315000022B05A005F0064006E0078008200820082008F
S315000022C00000000000000000000000000000000008
S315000022D000000000000000000000000000000000F8
S315000022E000000000000000000000000000000000E8
S315000022F000000000000000000000000000000000D8
S3150000230000000000000000000000000000000000C7
S3150000231000000000000000000000000000000000B7
S3150000232000000000000000000000000000000000A7
S315000023300000000000000000000000000000000097
S315000023400000000000000000000000000000000087
S315000023500000000000000000000000000000000077
S315000023600000000000000000000000000000000067
S315000023700000000000000000000000000000000057
S315000023800000000000000000000000000000000047
S315000023900000000000000000000000000000000037
S315000023A00000000000000000000000000000000027
S315000023B00000000000000000000000000000000017
S315000023C00000000000000000000000000000000007
S315000023D000000000000000000000000000000000F7
S315000023E000000000000000000000000000000000E7
S315000023F000000000000000000000000000000000D7
S3150000300080B500AFFDF72AFB80BD00BF80B500AFDD
S31500003010FDF724FB80BD00BF80B500AFFDF71EFBAA
S3150000302080BD00BF80B500AFFDF718FB80BD00BFB7
S3150000303080B500AFFDF712FB80BD00BF80B500AFC5
S31500003040FDF70CFB80BD00BF80B500AFFDF706FBAA
S3150000305080BD00BF80B500AFFDF700FB80BD00BF9F
S3150000306080B500AFFDF7FAFA80BD00BF80B500AFAE
S31500003070FDF7F4FA80BD00BF80B500AFFDF7EEFAAC
S3150000308080BD00BF80B500AFFDF7E8FA80BD00BF88
S3150000309080B500AFFDF7E2FA80BD00BF80B500AF96
S315000030A0FDF7DCFA80BD00BF80B500AFFDF7D6FAAC
S315000030B080BD00BF80B500AFFDF7D0FA80BD00BF70
S315000030C080B500AFFDF7CAFA80BD00BF80B500AF7E
S315000030D0FDF7C4FA80BD00BF80B500AFFDF7BEFAAC
S315000030E080BD00BF80B500AFFDF7B8FA80BD00BF58
S315000030F080B500AFFDF7B2FA80BD00BF80B500AF66
S31500003100FDF7ACFA80BD00BF80B500AFFDF7A6FAAB
S3150000311080BD00BF80B500AFFDF7A0FA80BD00BF3F
S3150000312080B500AFFDF79AFA80BD00BF80B500AF4D
S31500003130FDF794FA80BD00BF80B500AFFDF78EFAAB
S3150000314080BD00BF80B500AFFDF788FA80BD00BF27
S3150000315080B500AFFDF782FA80BD00BF80B500AF35
S31500003160FDF77CFA80BD00BF80B500AFFDF776FAAB
S3150000317080BD00BF80B500AFFDF770FA80BD00BF0F
S3150000318080B500AFFDF76AFA80BD00BF80B500AF1D
S31500003190FDF764FA80BD00BF80B500AFFDF75EFAAB
S315000031A080BD00BF80B500AFFDF758FA80BD00BFF7
S315000031B080B500AFFDF752FA80BD00BF80B500AF05
S315000031C0FDF74CFA80BD00BF80B500AFFDF746FAAB
S315000031D080BD00BF80B500AFFDF740FA80BD00BFDF
S315000031E080B500AFFDF73AFA80BD00BF80B500AFED
S315000031F0FDF734FA80BD00BF80B500AFFDF72EFAAB
S3150000320080BD00BF80B500AFFDF728FA80BD00BFC6
S3150000321080B500AFFDF722FA80BD00BF80B500AFD4
S31500003220FDF71CFA80BD00BF80B500AFFDF716FAAA
S3150000323080BD00BF80B500AFFDF710FA80BD00BFAE
S3150000324080B500AFFDF70AFA80BD00BF80B500AFBC
S31500003250FDF704FA80BD00BF80B500AFFDF7FEF9AB
S3150000326080BD00BF80B500AFFDF7F8F980BD00BF97
S3150000327080B500AFFDF7F2F980BD00BF80B500AFA5
S31500003280FDF7ECF980BD00BF80B500AFFDF7E6F9AC
S3150000329080BD00BF80B500AFFDF7E0F980BD00BF7F
S315000032A080B500AFFDF7DAF980BD00BF80B500AF8D
S315000032B0FDF7D4F980BD00BF80B500AFFDF7CEF9AC
S315000032C080BD00BF80B500AFFDF7C8F980BD00BF67
S315000032D080B500AFFDF7C2F980BD00BF80B500AF75
S315000032E0FDF7BCF980BD00BF80B500AFFDF7B6F9AC
S315000032F080BD00BF80B500AFFDF7B0F980BD00BF4F
S3150000330080B500AFFDF7AAF980BD00BF80B500AF5C
S31500003310FDF7A4F980BD00BF80B500AFFDF79EF9AB
S3150000332080BD00BF80B500AFFDF798F980BD00BF36
S3150000333080B500AFFDF792F980BD00BF80B500AF44
S31500003340FDF78CF980BD00BF80B500AFFDF786F9AB
S3150000335080BD00BF80B500AFFDF780F980BD00BF1E
S3150000336080B500AFFDF77AF980BD00BF80B500AF2C
S31500003370FDF774F980BD00BF80B500AFFDF76EF9AB
S3150000338080BD00BF80B500AFFDF768F980BD00BF06
S3150000339080B500AFFDF762F980BD00BF80B500AF14
S315000033A0FDF75CF980BD00BF80B500AFFDF756F9AB
S315000033B080BD00BF80B500AFFDF750F980BD00BFEE
S315000033C080B500AFFDF74AF980BD00BF80B500AFFC
S315000033D0FDF744F980BD00BF80B500AFFDF73EF9AB
S315000033E080BD00BF80B500AFFDF738F980BD00BFD6
S315000033F080B500AFFDF732F980BD00BF80B500AFE4
S31500003400FDF72CF980BD00BF80B500AFFDF726F9AA
S3150000341080BD00BF80B500AFFDF720F980BD00BFBD
S3150000342080B500AFFDF71AF980BD00BF80B500AFCB
S31500003430FDF714F980BD00BF80B500AFFDF70EF9AA
S3150000344080BD00BF80B500AFFDF708F980BD00BFA5
S3150000345080B500AFFDF702F980BD00BF80B500AFB3
S31500003460FDF7FCF880BD00BF80B500AFFDF7F6F8AC
S3150000347080BD00BF80B500AFFDF7F0F880BD00BF8E
S3150000348080B500AFFDF7EAF880BD00BF80B500AF9C
S31500003490FDF7E4F880BD00BF80B500AFFDF7DEF8AC
S315000034A080BD00BF80B500AFFDF7D8F880BD00BF76
S315000034B080B500AFFDF7D2F880BD00BF80B500AF84
S315000034C0FDF7CCF880BD00BF80B500AFFDF7C6F8AC
S315000034D080BD00BF80B500AFFDF7C0F880BD00BF5E
S315000034E080B500AFFDF7BAF880BD00BF80B500AF6C
S315000034F0FDF7B4F880BD00BF80B500AFFDF7AEF8AC
S3150000350080BD00BF80B500AFFDF7A8F880BD00BF45
S3150000351080B500AFFDF7A2F880BD00BF80B500AF53
S31500003520FDF79CF880BD00BF80B500AFFDF796F8AB
S3150000353080BD00BF80B500AFFDF790F880BD00BF2D
S3150000354080B500AFFDF78AF880BD00BF80B500AF3B
S31500003550FDF784F880BD00BF80B500AFFDF77EF8AB
S3150000356080BD00BF80B500AFFDF778F880BD00BF15
S3150000357080B500AFFDF772F880BD00BF80B500AF23
S31500003580FDF76CF880BD00BF80B500AF04F0C2F94E
S3150000359080BD00BF80B500AFFDF760F880BD00BFFD
S315000035A080B500AFFDF75AF880BD00BF80B500AF0B
S315000035B0FDF754F880BD00BF80B500AFFDF74EF8AB
S315000035C080BD00BF80B500AFFDF748F880BD00BFE5
S315000035D080B500AFFDF742F880BD00BF80B500AFF3
S315000035E0FDF73CF880BD00BF80B500AF06F0A8FD32
S315000035F080BD00BF80B500AF06F06CFD80BD00BF8A
S3150000360080B500AFFDF72AF880BD00BF80B500AFDA
S31500003610FDF724F880BD00BF80B500AF06F024FD9D
S3150000362080BD00BF80B500AFFDF718F880BD00BFB4
S3150000363080B500AFFDF712F880BD00BF80B500AFC2
S31500003640FDF70CF880BD00BF80B500AFFDF706F8AA
S3150000365080BD00BF80B500AFFDF700F880BD00BF9C
S3150000366080B500AFFCF7FAFF80BD00BF80B500AFA4
S31500003670FCF7F4FF80BD00BF80B500AFFCF7EEFF9E
S3150000368080BD00BF80B500AFFCF7E8FF80BD00BF7E
S3150000369080B500AFFCF7E2FF80BD00BF80B500AF8C
S315000036A0FCF7DCFF80BD00BF80B500AFFCF7D6FF9E
S315000036B080BD00BF80B500AFFCF7D0FF80BD00BF66
S315000036C080B500AFFCF7CAFF80BD00BF80B500AF74
S315000036D0FCF7C4FF80BD00BF80B500AFFCF7BEFF9E
S315000036E080BD00BF80B500AFFCF7B8FF80BD00BF4E
S315000036F080B500AFFCF7B2FF80BD00BF80B500AF5C
S31500003700FCF7ACFF80BD00BF80B500AFFCF7A6FF9D
S3150000371080BD00BF80B500AFFCF7A0FF80BD00BF35
S3150000372080B500AFFCF79AFF80BD00BF80B500AF43
S31500003730FCF794FF80BD00BF80B500AFFCF78EFF9D
S3150000374080BD00BF80B500AFFCF788FF80BD00BF1D
S3150000375080B500AFFCF782FF80BD00BF80B500AF2B
S31500003760FCF77CFF80BD00BF80B500AFFCF776FF9D
S3150000377080BD00BF80B500AFFCF770FF80BD00BF05
S3150000378080B500AFFCF76AFF80BD00BF80B500AF13
S31500003790FCF764FF80BD00BF80B500AFFCF75EFF9D
S315000037A080BD00BF80B500AFFCF758FF80BD00BFED
S315000037B080B500AFFCF752FF80BD00BF80B500AFFB
S315000037C0FCF74CFF80BD00BF80B500AFFCF746FF9D
S315000037D080BD00BF80B500AFFCF740FF80BD00BFD5
S315000037E080B500AFFCF73AFF80BD00BF80B500AFE3
S315000037F0FCF734FF80BD00BF80B500AFFCF72EFF9D
S3150000380080BD00BF80B500AFFCF728FF80BD00BFBC
S3150000381080B500AFFCF722FF80BD00BF80B500AFCA
S31500003820FCF71CFF80BD00BF80B500AFFCF716FF9C
S3150000383080BD00BF80B500AFFCF710FF80BD00BFA4
S3150000384080B500AFFCF70AFF80BD00BF80B500AFB2
S31500003850FCF704FF80BD00BF80B500AFFCF7FEFE9D
S3150000386080BD00BF80B500AFFCF7F8FE80BD00BF8D
S3150000387080B500AFFCF7F2FE80BD00BF80B500AF9B
S31500003880FCF7ECFE80BD00BF80B500AFFCF7E6FE9E
S3150000389080BD00BF80B500AFFCF7E0FE80BD00BF75
S315000038A080B500AFFCF7DAFE80BD00BF80B500AF83
S315000038B0FCF7D4FE80BD00BF80B500AFFCF7CEFE9E
S315000038C080BD00BF80B500AFFCF7C8FE80BD00BF5D
S315000038D080B500AFFCF7C2FE80BD00BF80B500AF6B
S315000038E0FCF7BCFE80BD00BF80B500AFFCF7B6FE9E
S315000038F080BD00BF80B500AFFCF7B0FE80BD00BF45
S3150000390080B500AFFCF7AAFE80BD00BF80B500AF52
S31500003910FCF7A4FE80BD00BF80B500AFFCF79EFE9D
S3150000392080BD00BF80B500AFFCF798FE80BD00BF2C
S3150000393080B500AFFCF792FE80BD00BF80B500AF3A
S31500003940FCF78CFE80BD00BF80B500AFFCF786FE9D
S3150000395080BD00BF80B500AFFCF780FE80BD00BF14
S3150000396080B500AFFCF77AFE80BD00BF80B500AF22
S31500003970FCF774FE80BD00BF80B500AFFCF76EFE9D
S3150000398080BD00BF80B500AFFCF768FE80BD00BFFC
S3150000399080B500AFFCF762FE80BD00BF80B500AF0A
S315000039A0FCF75CFE80BD00BF80B500AFFCF756FE9D
S315000039B080BD00BF80B500AFFCF750FE80BD00BFE4
S315000039C080B500AFFCF74AFE80BD00BF80B500AFF2
S315000039D0FCF744FE80BD00BF80B500AFFCF73EFE9D
S315000039E080BD00BF80B500AFFCF738FE80BD00BFCC
S315000039F080B500AFFCF732FE80BD00BF80B500AFDA
S31500003A00FCF72CFE80BD00BF80B500AFFCF726FE9C
S31500003A1080BD00BF80B500AFFCF720FE80BD00BFB3
S31500003A2080B500AFFCF71AFE80BD00BF80B500AFC1
S31500003A30FCF714FE80BD00BF80B500AFFCF70EFE9C
S31500003A4080BD00BF80B500AFFCF708FE80BD00BF9B
S31500003A5080B500AFFCF702FE80BD00BF80B500AFA9
S31500003A60FCF7FCFD80BD00BF80B500AFFCF7F6FD9E
S31500003A7080BD00BF80B500AFFCF7F0FD80BD00BF84
S31500003A8080B500AFFCF7EAFD80BD00BF80B500AF92
S31500003A90FCF7E4FD80BD00BF80B500AFFCF7DEFD9E
S31500003AA080BD00BF80B500AFFCF7D8FD80BD00BF6C
S31500003AB080B500AFFCF7D2FD80BD00BF80B500AF7A
S31500003AC0FCF7CCFD80BD00BF80B500AFFCF7C6FD9E
S31500003AD080BD00BF80B500AFFCF7C0FD80BD00BF54
S31500003AE080B500AFFCF7BAFD80BD00BF80B500AF62
S31500003AF0FCF7B4FD80BD00BF80B500AFFCF7AEFD9E
S31500003B0080BD00BF80B500AFFCF7A8FD80BD00BF3B
S31500003B1080B500AFFCF7A2FD80BD00BF80B500AF49
S31500003B20FCF79CFD80BD00BF80B500AFFCF796FD9D
S31500003B3080BD00BF80B500AFFCF790FD80BD00BF23
S31500003B4080B500AFFCF78AFD80BD00BF80B500AF31
S31500003B50FCF784FD80BD00BF80B500AFFCF77EFD9D
S31500003B6080BD00BF80B500AFFCF778FD80BD00BF0B
S31500003B7080B500AFFCF772FD80BD00BF80B500AF19
S31500003B80FCF76CFD80BD00BF80B500AFFCF766FD9D
S31500003B9080BD00BF80B500AFFCF760FD80BD00BFF3
S31500003BA080B500AFFCF75AFD80BD00BF80B500AF01
S31500003BB0FCF754FD80BD00BF80B500AFFCF74EFD9D
S31500003BC080BD00BF80B500AFFCF748FD80BD00BFDB
S31100003BD080B500AFFCF742FD80BD00BFD1
S3150000400080B582B000AF00237B6000233B6072B6B0
S31500004010FCF7D6FA00F0A6FF00F0CAFF03F00CFF8B
S3150000402004F02CF801204FF4FA710122734B00F0D2
S3150000403005FB04F0EBFA62B600237B6006E004F0B1
S31500004040C3FAFCF7FBFA7B6801337B607B68B3F548
S315000040507A7FF4D304F0B2F904F064F906F04EFA6C
S3150000406001F09AFF02F0A2FC01F04AFC644BDB7DF2
S315000040709BB21A46920013441A4691001A460B4602
S3150000408013445B019BB201339BB23B605D4B9B6863
S3150000409003F08003002B0DD000237B6006E004F0C4
S315000040A093FAFCF7CBFA7B6801337B607A683B684E
S315000040B09A42F4D304F0F2F902F07AFAFCF7BEFA67
S315000040C0514B01221A7000237B600FE04F4A7B6838
S315000040D032F813309BB29B089BB2D9B24C4A7B682C
S315000040E013440A461A707B6801337B607B680F2B8A
S315000040F0ECD906F067FA474A13786FF38203137018
S31500004100434B9B78DBB2FA2B04D8414B9B78DBB24E
S31500004110982B0FD83F4A137843F0040313703E4A96
S3150000412013786FF3451313703C4B00221A7004F09A
S315000041306DFA5AE0374B1B889BB25B0803F001030C
S31500004140DBB2002B48D1334B1B889BB21B0903F013
S315000041500103DBB2002B3FD12E4B1B8803F001037A
S31500004160DBB2002B38D12B4B1B889BB29B0903F08B
S315000041700103DBB2002B2FD1294B1B78DBB2002BBE
S315000041802AD1284B1B8803F00103DBB2002B23D175
S31500004190244B1B889BB29B0803F00103DBB2002B68
S315000041A01AD1204B1B889BB2DB0803F00103DBB25C
S315000041B0002B11D11B4B1B889BB25B0903F001033B
S315000041C0DBB2002B08D1174B1B889BB21B0903F0EF
S315000041D00103DBB2002B05D0104B00221A7004F04D
S315000041E015FA02E00D4B01221A7003F0C1FDFCF72F
S315000041F025FA05F0CDF8FCF721FA64E7B89200003D
S315000042000020000000F007406BE2FF1F2CE2FF1FBA
S31500004210B8E1FF1F64E2FF1FC0F00F407DE0FF1F03
S3150000422066E1FF1F50E2FF1F80B500AF224B1B78EF
S315000042300133DAB2204B1A701F4B1B7803F00103CF
S31500004240DBB2002B26D01D4B1B899BB2184601F012
S3150000425097FC03461A461A4B1A80184BDB899BB209
S31500004260184601F0FBFD03461A46164B1A8001F06C
S3150000427033FC04F0D1FA144B1B78DBB2012B02D1CC
S3150000428004F00AFC17E0114B00221A80104B0022A2
S315000042901A8010E00F4B9B6B18460F490F4A06F029
S315000042A0C7F9094B1B78DBB2002B02D1044B002265
S315000042B01A8004F093FD80BD00E0FF1F2CE2FF1F73
S315000042C004E1FF1F02E1FF1F7DE0FF1FA0E2FF1FC9
S315000042D008E3FF1F68E1FF1F28E3FF1F18E3FF1F26
S315000042E080B500AF01F050FF02F0A6FC06F0ACF876
S315000042F080BD00BF90B589B002AF00233B73002399
S315000043007B730023BB730023FB7300233B740023E2
S315000043107B740023BB740023FB7400237B6107F1CD
S3150000432008013A1D07F10C03012000F08FFB03463C
S31500004330002B0AD1BA687B68DCB207F10C03009344
S3150000434001200121234600F0A7FA2C4B1B78DBB293
S31500004350002B1AD02A4B1B78DBB2002B15D0294B29
S315000043609B68284A926802FB03F31946254B5B6853
S31500004370244A526802FB03F30B447B61786901F01F
S315000043803DF903461A461F4B1A601F4B1B78013333
S31500004390DAB21D4B1A701C4B1B78322B02D91A4B02
S315000043A001221A70184B1A78184BA3FB02139908AE
S315000043B00B469B000B44D31ADBB2002B01D102F053
S315000043C035FD114B1B78012B02D00F4B1B781B2B95
S315000043D00D4B1B780D2B02D00B4B1B78262B0A4B53
S315000043E01B78032B06D0084B1B78072B02D0064BF5
S315000043F01B78112B1C37BD4690BD00BF05E3FF1F80
S315000044007DE0FF1FA4E0FF1F01E0FF1FCDCCCCCC59
S3150000441080B500AF174B1B889BB2002B1CD0164BE8
S315000044201B78DBB2142B06D8134B1B78DBB2013397
S31500004430DAB2114B1A70104B1B78DBB2132B05D96D
S315000044400E4A137843F0020313700DE00B4A1378FB
S315000044506FF34103137007E0074B00221A70074AF7
S3150000446013786FF34103137002F0A2F802F01CFDFB
S3150000447080BD00BF04E1FF1F06E3FF1F50E2FF1FE0
S3150000448080B400AF294A294B5B6823F00F135360B1
S31500004490274A274BD3F8EC3023F08043C2F8EC30A0
S315000044A0234B4FF0C062C3F8EC20214A204BD3F8CF
S315000044B0EC3043F08043C2F8EC301E4B08221A64FD
S315000044C01C4B0C225A641B4B0022C3F89020194B3C
S315000044D00022C3F89420164A154BD3F89C3023F0DB
S315000044E08043C2F89C30124B4FF0C062C3F89C2048
S315000044F00F4A0F4BD3F89C3043F08043C2F89C30F0
S315000045000D4A0D4B1B6C43F0080313640A4B0C2237
S315000045105A64094B0022C3F89020074B0022C3F8C7
S315000045209420BD465DF8047B704700BF00800440C0
S315000045300050064000B003400070024080B483B0D3
S3150000454000AF00237B600C4B4022C3F89020002371
S315000045507B6009E008497B6803F01F027B6841F82D
S3150000456023207B6801337B607B68072BF2DD0C37E9
S31500004570BD465DF8047B704700B0034080B483B04D
S3150000458000AF00237B600C4B4022C3F89020002331
S315000045907B6009E008497B6803F01F027B6841F8ED
S315000045A023207B6801337B607B68072BF2DD0C37A9
S315000045B0BD465DF8047B70470070024080B483B04E
S315000045C000AF78600C4A0C4B1B6823F01F03136086
S315000045D0094A7B6803F01F03136000BF064B1B6884
S315000045E003F08003002BF9D0034B9B6C18460C3765
S315000045F0BD465DF8047B704700B0034080B483B0CD
S3150000460000AF78600C4A0C4B1B6823F01F03136045
S31500004610094A7B6803F01F03136000BF064B1B6843
S3150000462003F08003002BF9D0034B9B6C18460C3724
S31500004630BD465DF8047B70470070024080B489B0C7
S3150000464000AFB9607A603B600346FB73FB7B002BCF
S3150000465007D18A4BBB618A4B4FF08042C3F890204A
S3150000466006E0884BBB61864B4FF08042C3F894202E
S31500004670BB691B6843F00042BB691A60BB695B6893
S3150000468023F40052BB695A60BB691B6823F00042E1
S31500004690BB691A60BB691B6883F00072BB691A604C
S315000046A000BFBB691B6803F00073002BF9D1BB691F
S315000046B01B6843F08042BB691A60BB691B6843F004
S315000046C08052BB691A6000BFBB691B6803F0807328
S315000046D0002BF9D0BB68B3F57A7F03D3BB696A4A6E
S315000046E05A600AE0BB68B3F5FA7F03D3BB69674A31
S315000046F05A6002E0BB69664A5A60BB6900221A61C9
S31500004700BB6900229A647B68012B11D10023FB77D9
S315000047100AE0FA7FBB6902F508726FF0010143F8FF
S315000047202210FB7F0133FB77FB7F0F2BF1D90FE0C4
S315000047300023FB7709E0FA7FBB6902F50872554949
S3150000474043F82210FB7F0133FB77FB7F0F2BF2D957
S31500004750BB691B6843F40032BB691A60BB691B68FE
S3150000476043F00F02BB691A60BB691B6843F0005235
S31500004770BB691A60BB691B6843F48032BB691A6067
S31500004780BB694FF420025A63BB6980337B61002307
S31500004790FB7741E07B68012B12D1FB7FFA7F920009
S315000047A039680A441268520022F040407A6903F1DF
S315000047B0180152F8213060F31D0342F8213011E050
S315000047C0FB7FFA7F920039680A441268D20422F00D
S315000047D040407A6903F1180152F8213060F31D0355
S315000047E042F82130FB7F7A68D2B202F00102D1B2E0
S315000047F07A6918339B001344DA7861F38612DA700B
S31500004800FB7F7A6918339B001344DA786FF3C7127B
S31500004810DA70FB7F0133FB77FB7F072BBAD90023C6
S31500004820FB770CE0FB7F7A6908331B011A44D378C7
S31500004830082161F30303D370FB7F0133FB77FB7F12
S31500004840072BEFD9BB691B6823F08042BB691A604E
S3150000485000BFBB691B6803F08073002BF9D100BF52
S31500004860BB691B6803F00063002BF9D100231846CF
S315000048702437BD465DF8047B704700BF0040024008
S315000048800050064000500240030001000400E4000E
S315000048900400E4010000F8FF80B489B000AFB960FD
S315000048A07A601A460346FB731346BB73FB7B002BE9
S315000048B002D1644BFB6101E0634BFB61FB69803312
S315000048C07B6100237B831AE07B8B7A6908331B01AB
S315000048D01344DB78C3F30303DBB2082B00D111E0EA
S315000048E07B8B7A6908331B011344DB78C3F303031C
S315000048F0DBB2092B00D105E07B8B01337B837B8BFD
S31500004900072BE1D97B8B082B01D1012393E0BB68F0
S31500004910002B0CD07B8B7A6822F060417A690833D1
S315000049201B011A44536861F31C0353600CE07B8B34
S315000049307A68920422F060417A6908331B011A44AE
S31500004940536861F31C0353607B8BBA7B02F00F0242
S31500004950D1B27A6908331B011A44937861F30303D1
S3150000496093707B8BBA6A11787A691B0113448B3377
S315000049700A461A707B8BBA6A51787A691B0113440E
S315000049808A330A461A707B8BBA6A91787A691B0158
S31500004990134489330A461A707B8BBA6AD1787A69CE
S315000049A01B01134488330A461A707B8BBA6A117945
S315000049B07A691B0113448F330A461A707B8BBA6AD5
S315000049C051797A691B0113448E330A461A707B8B20
S315000049D0BA6A91797A691B0113448D330A461A70B3
S315000049E07B8BBA6AD1797A691B0113448C330A46E8
S315000049F01A707B8BBA68D2B202F00102D1B27A6920
S31500004A0008331B011A44937861F3451393707B8B2B
S31500004A107A6908331B011A4493786FF30413937071
S31500004A207B8B7A6908331B011A44D3780C2161F316
S31500004A300303D370002318462437BD465DF8047B74
S31500004A40704700BF004002400050024080B487B06B
S31500004A5000AFB9607A603B600346FB73FB7B002BBB
S31500004A6002D12F4B7B6101E02E4B7B617B6980334A
S31500004A703B617B691B6B03F02003002B01D10123F3
S31500004A8048E03B695B68C3F31C031A46BB681A60BF
S31500004A903B699B7803F02003DBB2002B04D1BB6893
S31500004AA01B689A0CBB681A603B699B78C3F30303C7
S31500004AB0DBB21A467B681A703B69DA7A3B681A7071
S31500004AC03B6801333A69927A1A703B6802333A6955
S31500004AD0527A1A703B6803333A69127A1A703B6845
S31500004AE004333A69D27B1A703B6805333A69927B84
S31500004AF01A703B6806333A69527B1A703B68073373
S31500004B003A69127B1A707B691B6B43F020027B6942
S31500004B101A63002318461C37BD465DF8047B7047B0
S31500004B20004002400050024080B485B000AFF860FB
S31500004B30B9607A601C491C4ABB6852F8233023F0DE
S31500004B408042BB6841F823201749174ABB6852F8D0
S31500004B50233043F08C42BB6841F82320FB685B6D31
S31500004B6043F00402FB685A65FB6840F205121A60BE
S31500004B70FB6800225A66FB6800221A67FB6800225F
S31500004B809A60FA687B680133DB00134444225A605A
S31500004B90FB681B6843F00802FB681A601437BD46C1
S31500004BA05DF8047B704700BF0050064080B485B0B6
S31500004BB000AFF860B9607A603B602149204ABB6863
S31500004BC052F8233023F08042BB6841F823201C4969
S31500004BD01B4ABB6852F8233043F08C42BB6841F84D
S31500004BE02320FB685B6D43F00402FB685A65FB6893
S31500004BF000221A60FB6800225A66FB6800221A67C8
S31500004C007B689B005A1EFB689A60FB680022DA6488
S31500004C103B68002B04D1FB680122C3F8802003E027
S31500004C20FB681122C3F88020FB681B6843F008026A
S31500004C30FB681A601437BD465DF8047B704700BFF9
S31500004C400050064080B483B000AF786039601D49DB
S31500004C501C4A3B6852F8233023F080423B6841F8F7
S31500004C6023201849174A3B6852F8233043F08C42F8
S31500004C703B6841F823207B685B6D43F004027B6848
S31500004C805A657B6840F205121A607B6800225A66F4
S31500004C907B6800221A677B6800229A607B684C2238
S31500004CA0DA617B684C225A627B684E22DA627B6844
S31500004CB01B6843F008027B681A600C37BD465DF836
S31500004CC0047B70470050064080B485B000AFF860A2
S31500004CD0B9607A601E491E4ABB6852F8233023F039
S31500004CE08042BB6841F823201949194ABB6852F82B
S31500004CF0233043F08C42BB6841F82320FB685B6D90
S31500004D0043F00402FB685A65FB68124A1A60FB68A6
S31500004D1000225A66FB6800221A677B680A2B04D1B8
S31500004D20FB684FF47A629A6003E0FB684FF4C8525E
S31500004D309A60FB6808225A63FB680822DA63FB68FC
S31500004D4008225A641437BD465DF8047B704700BFDD
S31500004D50005006402001E00080B483B000AF7860C8
S31500004D607B681B6843F008027B681A600C37BD46F7
S31500004D705DF8047B704700BF80B400AF0D4A0D4B51
S31500004D80D3F8A83123F08043C2F8A831094A094B69
S31500004D90D3F8A83143F08243C2F8A831064B074A3C
S31500004DA01A61054B4FF440229A61BD465DF8047BBB
S31500004DB0704700BF0050064000A006401A00000FD2
S31500004DC080B483B000AF0346FB71094B5B6903F403
S31500004DD00003002B01D10B2303E0054AFB79D361C5
S31500004DE0002318460C37BD465DF8047B704700BFAC
S31500004DF000A0064080B485B000AF7860114B5B69B7
S31500004E00FB60FB6803F47023002B07D00D4A0D4BA3
S31500004E105B6943F47023536119230CE0FB6803F4C8
S31500004E200013002B01D10A2305E0064BDB69DAB239
S31500004E307B681A70002318461437BD465DF8047B5C
S31500004E40704700BF00A0064080B400AF0D4A0D4B6E
S31500004E50D3F8AC3123F08043C2F8AC31094A094B90
S31500004E60D3F8AC3143F08243C2F8AC31064B074A63
S31500004E701A61054B4FF440229A61BD465DF8047BEA
S31500004E80704700BF0050064000B006401A00000FF1
S31500004E9080B483B000AF0346FB71094B5B6903F432
S31500004EA00003002B01D10B2303E0054AFB79D361F4
S31500004EB0002318460C37BD465DF8047B704700BFDB
S31500004EC000B0064080B485B000AF7860114B5B69D6
S31500004ED0FB60FB6803F47023002B07D00D4A0D4BD3
S31500004EE05B6943F47023536119230CE0FB6803F4F8
S31500004EF00013002B01D10A2305E0064BDB69DAB269
S31500004F007B681A70002318461437BD465DF8047B8B
S31500004F10704700BF00B0064080B400AF0E4A0E4B8B
S31500004F20D3F8C43043F08043C2F8C4300B4A0B4B6D
S31500004F301B6843F478631360084B094A1A61074BF0
S31500004F4000229A63054A054B1B6843F00103136070
S31500004F50BD465DF8047B70470050064000100340D4
S31500004F60FF00FE0080B400AF104B40F20112C3F800
S31500004F7004210E4B2422C3F8082100BF0B4BD3F8A3
S31500004F80003103F40003002BF8D1084B0122C3F8CB
S31500004F90002100BF054BD3F8003103F08073002BCE
S31500004FA0F8D0BD465DF8047B704700BF0040064060
S31500004FB080B400AF00BF194BD3F8003603F40003EA
S31500004FC0002BF8D1154B0022C3F80026134B40F2F4
S31500004FD00222C3F80426114B4FF4C012C3F8082668
S31500004FE000BF0E4BD3F8003603F40003002BF8D1B4
S31500004FF00A4B0122C3F8002600BF084BD3F800363F
S3150000500003F08073002BF8D0044B054A5A61034B1A
S315000050101B69BD465DF8047B704700BF0040064033
S315000050201200010680B400AF00BF294BD3F800364A
S3150000503003F40003002BF8D1254B0022C3F8002609
S31500005040234B244A5A61224B224ADA61204B1B69C0
S31500005050214B80229A60204B6022DA6000BF1E4BF3
S315000050605B6903F08003002BF9D000BF184BD3F81F
S31500005070003603F40003002BF8D1154B0022C3F8C9
S315000050800026134B40F20222C3F80426104B4FF4BD
S315000050904022C3F8082600BF0D4BD3F8003603F4B0
S315000050A00003002BF8D10A4B0122C3F8002600BFEB
S315000050B0074BD3F8003603F08073002BF8D0044B6F
S315000050C0064ADA61024B1B69BD465DF8047B7047F0
S315000050D0004006400100000300E007401300000600
S315000050E080B500AF064B0022DA6000BF044B5B6957
S315000050F003F08003002BF9D0FFF75AFF80BD00BFF5
S3150000510000E0074080B485B000AF03460A46FB7155
S315000051101346BB71FB795B09FB73FB7903F01F0335
S31500005120BB730F49FB7BBA7B012000FA02F26033A6
S3150000513041F823200A49FB7BBA7B012000FA02F2E0
S3150000514041F823200649FB79BA791201D2B20B4401
S3150000515083F800231437BD465DF8047B704700BF13
S3150000516000E100E080B48BB000AF786039607B6806
S315000051701B685B087B627B6A1B0C3B627B6A9BB28B
S31500005180FB613B6ABB61BB69203303F07F037B6134
S31500005190FB69002B0ED1BB699B003A6813441A6861
S315000051A07B685A607B699B003A6813441A687B687F
S315000051B09A603DE0BB69013303F07F033B617B6985
S315000051C0013303F07F03FB603B699B003A6813449D
S315000051D01A68BB699B0039680B441B68D31A1A46C8
S315000051E0FB6903FB02F3BB60BB681A14BB699B0037
S315000051F039680B441B681A447B685A60FB689B003D
S315000052003A6813441A687B699B0039680B441B682B
S31500005210D31A1A46FB6903FB02F3BB60BB681A1478
S315000052207B699B0039680B441B681A447B689A604B
S315000052302C37BD465DF8047B704700BF80B487B04D
S3150000524000AF786039607B681B687B617B681B6890
S3150000525044F6E71202FB03F27B685B6849F2CE3143
S3150000526001FB03F313443B613B69DB139BB21BB2A7
S31500005270FB603B689B687A6902FB03F23B685B68EC
S31500005280F96801FB03F313443B613B69DB139BB2F3
S315000052901AB27B681A613B689B68FA6802FB03F2E4
S315000052A03B685B68796901FB03F3D31A3B613B6991
S315000052B0DB139BB21AB27B685A611C37BD465DF898
S315000052C0047B704780B487B000AF786039607B6834
S315000052D05B683A68926802FB03F27B689B683968F0
S315000052E0496801FB03F3D31A7B617B69DB133B61DE
S315000052F07B685B683A68526802FB03F27B689B68CE
S315000053003968896801FB03F313447B617B69DB130E
S31500005310FB607B68FA68DA603B6946F6D96202FB95
S3150000532003F33B61FA6813469B049B1A9B03FB60DD
S315000053303A69FB6813447B617B69DA137B681A61FF
S31500005340FA683B69D31A7B617B69DA137B685A6119
S315000053501C37BD465DF8047B704700BF80B586B03C
S3150000536000AF786039607B68DB68002B4BDB7B68BD
S315000053701B69002B15DB7B681B6918467B68DB689D
S3150000538019463B685A6807F10C0300F0CBF8FA6837
S315000053903B685A613A693B689A617A693B68DA61A7
S315000053A07EE07B685B69002B15DB7B68DB68184653
S315000053B07B685B6919463B685A6807F10C0300F085
S315000053C0B1F87A693B685A61FA683B689A613A694A
S315000053D03B68DA6164E07B681B695B4218467B6860
S315000053E05B695B4219463B685A6807F10C0300F09B
S315000053F099F83A693B685A61FA683B689A617A6932
S315000054003B68DA614CE07B681B69002B31DB7B680B
S315000054105B69002B15DB7B685B6918467B681B693B
S3150000542019463B685A6807F10C0300F07BF83A69A5
S315000054303B685A617A693B689A61FA683B68DA6147
S315000054402EE07B685B695B4218467B68DB685B42E3
S3150000545019463B685A6807F10C0300F063F8FA68CE
S315000054603B685A617A693B689A613A693B68DA61D6
S3150000547016E07B68DB685B4218467B681B695B420B
S3150000548019463B685A6807F10C0300F04BF87A6935
S315000054903B685A613A693B689A61FA683B68DA6127
S315000054A03B685A693B689B689A4204D93B689A688C
S315000054B03B685A6109E03B685A693B681B699A4236
S315000054C003D23B681A693B685A613B689A693B6834
S315000054D09B689A4204D93B689A683B689A6109E0DE
S315000054E03B689A693B681B699A4203D23B681A6912
S315000054F03B689A613B68DA693B689B689A4204D9C3
S315000055003B689A683B68DA6109E03B68DA693B68A0
S315000055101B699A4203D23B681A693B68DA611837FD
S31500005520BD4680BD80B489B000AFF860B9607A60CE
S315000055303B60FB687A6802FB03F3DB0BFB61BB682D
S315000055407A6802FB03F3DB0BBB61FA69BB691344A0
S315000055507B617A697B689A4211D97B68DA037B6939
S31500005560B2FBF3F33B61FB693A6902FB03F3DB0B26
S31500005570FB61BB693A6902FB03F3DB0BBB617B682A
S315000055809BB21946FA69BB691344CB1A5A083B68A1
S315000055909A603B689A68BB691A443B685A603B68E4
S315000055A05A68FB691A443B681A602437BD465DF8A1
S315000055B0047B704780B483B000AF0346FB710B4693
S315000055C0BB7113467B71FA79BB79D31ADBB29BB2F6
S315000055D01A46920013441A4691001A460B46134483
S315000055E09B009BB21A467B7992FBF3F3DBB218461B
S315000055F00C37BD465DF8047B704700BF80B487B0AA
S3150000560000AF78607B68002B01D100233AE00023CD
S31500005610FB827B689B0F3B617B689B007B603B69E1
S31500005620002B06D0FB8A0133FB82FB8A3A69D31A28
S315000056303B610F23BB8221E0FB8A5B00FB823B6957
S315000056409B003B617B689B0F3A6913443B61FB8A75
S31500005650FB60FB685B000133FB607B689B007B6043
S315000056603A69FB689A4206D33A69FB68D31A3B61EA
S31500005670FB8A0133FB82BB8A013BBB82BB8A002BC0
S31500005680DAD1FB8A18461C37BD465DF8047B7047A5
S3150000569080B489B000AFF860B9607A600023FB611E
S315000056A00023BB6100237B617B68012202FA03F3BE
S315000056B0FB61FB69013BFB617B68C3F110037B6106
S315000056C0FA687B6902FA03F3BB61BB681B68FA6977
S315000056D002FB03F2BB691A447B681A41BB681A6075
S315000056E0BB681A687B6942FA03F318462437BD463D
S315000056F05DF8047B704700BF80B485B000AF0346F9
S315000057003960FB801346BB800023FB810023BB81ED
S3150000571000237B810023FB81BB88013BBB813B6867
S315000057201B88FA889A4202D200237B816AE0BB89F1
S315000057305B003A6813441B88FA889A4202D9BB89EF
S315000057407B815FE01DE0FA89BB8913445B107B8196
S315000057507B895B003A6813441B88FA889A4203D215
S315000057607B89013BBB810CE07B895B003A68134473
S315000057701B88FA889A4203D97B890133FB8100E0B2
S3150000578003E0FA89BB899A42DDD97B895B003A68D6
S3150000579013441B88FA889A4215D97B8901335B002A
S315000057A03A6813441B881A46FB88D21AFB88798903
S315000057B049003868014409885B1A9A4222DA7B89D3
S315000057C001337B811EE07B895B003A6813441B88AA
S315000057D0FA889A4216D2FA887B8903F10043013B84
S315000057E05B0039680B441B88D21A7B895B003968D9
S315000057F00B441B881946FB88CB1A9A4202DA7B892E
S31500005800013B7B817B8918461437BD465DF8047BD6
S31500005810704700BF80B487B000AF03463960FB8095
S315000058201346BB800023FB820023BB8200237B82BE
S3150000583000233B820023FB810023FB82BB88013BC4
S31500005840BB823B681B88FA889A4207D800237B8272
S315000058507B8A3B827B8A0133FB8145E0BB8A5B0006
S315000058603A6813441B88FA889A4207D3BB8A7B821C
S315000058707B8A013B3B827B8AFB8135E01DE0FA8A0D
S31500005880BB8A13445B107B827B8A5B003A681344B5
S315000058901B88FA889A4203D27B8A013BBB820CE0C2
S315000058A07B8A5B003A6813441B88FA889A4203D9BC
S315000058B07B8A0133FB8200E003E0FA8ABB8A9A42C4
S315000058C0DDD97B8A5B003A6813441B88FA889A42C2
S315000058D005D37B8A3B827B8A0133FB8104E07B8A8A
S315000058E0013B3B827B8AFB813B8A1B029AB2FB8986
S315000058F013449BB218461C37BD465DF8047B7047BF
S3150000590080B500AF684B93F889301A4613469B0260
S315000059109B1A1A46654BA3FB02235B099AB2644B9A
S315000059201A80614B93F88A301A4613469B029B1ADB
S315000059301A465E4BA3FB02235B099AB25D4B1A80A3
S31500005940594B93F88330012B2DD1574B93F8843064
S315000059501A4613469B029B1A1A46544BA3FB022374
S315000059605B099AB2544B1A804F4B93F885301A460E
S3150000597013469B029B1A1A464C4BA3FB02235B0958
S315000059809AB24D4B5A804C4B5A884B4B1B88D31AB4
S315000059909AB2494B9A80494B00221A80484B40F2F2
S315000059A0FF321A8048E0404B93F88330022B43D1F4
S315000059B03D4B93F884301A4613469B029B1A1A46AF
S315000059C03A4BA3FB02235B099AB23B4B1A80364B38
S315000059D093F885301A4613469B029B1A1A46334B98
S315000059E0A3FB02235B099AB2334B5A80324B5A8887
S315000059F0314B1B88D31A9AB22F4B9A802A4B93F8B5
S31500005A0081301A4613469B029B1A1A46274BA3FB64
S31500005A1002235B099AB2294B1A80234B93F88230F2
S31500005A201A4613469B029B1A1A46204BA3FB0223D7
S31500005A305B099AB2224B1A801F4B9B885B089AB26D
S31500005A40204B1A801F4B1B881A46174B93F886303B
S31500005A5003FB02F3154AA2FB03231B099AB21A4B56
S31500005A601A80184B1B881A460F4B93F8873003FB96
S31500005A7002F30E4AA2FB03231B099AB2134B1A80A8
S31500005A80094B93F88630C3F16403DAB2104B1A70EF
S31500005A90054B93F88730C3F16403DAB20D4B1A70E5
S31500005AA000F0BEF900BF80BD002000001F85EB514D
S31500005AB00CE0FF1F0EE0FF1F08E1FF1F08E0FF1FBD
S31500005AC00AE0FF1F02E0FF1F04E0FF1F06E0FF1FC2
S31500005AD010E0FF1F11E0FF1F80B500AF214B1B88B0
S31500005AE09BB2002B06D1204B5B7C03F04003DBB25C
S31500005AF0002B05D11D4B01221A701D4B00221A8066
S31500005B001C4B1B78DBB2012B2AD1184B1B78012BBF
S31500005B1026D1144B1B889BB2002B21D1124B5B7CE8
S31500005B2003F04003DBB2002B1AD0134B1B889BB249
S31500005B30002B08D0114A137843F0080313700C4B5E
S31500005B4000221A800CE0094B00221A700B4A1378C7
S31500005B506FF3C303137000F063F9054B00221A803C
S31500005B6080BD00BF02E1FF1F80F00F4012E0FF1F63
S31500005B7004E1FF1FF8E1FF1F52E1FF1F64E2FF1F70
S31500005B8080B586B000AF0346FB800023FB7500237B
S31500005B90BB8200237B820023FB60914B93F883300A
S31500005BA0022B0ED18F4B1B88FA889A4204D38E4B58
S31500005BB01B88FA889A4204D98C4A137843F010035A
S31500005BC013708B4B1B78DBB2002B15D0894B9B7C5B
S31500005BD003F00203DBB2002B0ED10023BB82864BFF
S31500005BE00022A3F84820844B00229A7100F018F98D
S31500005BF0824B00221A808BE07C4B1B889BB21B09D0
S31500005C0003F00103DBB2012B02D10023BB8212E0B9
S31500005C10FB88BB82724B93F88330012B0BD0704B01
S31500005C2093F88330022B06D00023BB82724B0022EE
S31500005C309A7100F0F5F8704B1B88BA8A9A4203D223
S31500005C406D4B1B88BB8207E06B4B5B88BA8A9A4216
S31500005C5002D9694B5B88BB82674B1B88BA8AD31A09
S31500005C60BB82664ABB8A1380654B1B78DBB2002B6E
S31500005C7023D1644B1B88BA8A9A420BD8BB8A584AEE
S31500005C8092F8862002FB03F35F4AA2FB03231B095B
S31500005C90BB8235E0BB8A5B4A12889B1A1A465B4B6D
S31500005CA01B7803FB02F3584AA2FB03231B099AB293
S31500005CB0574B1B881344BB8222E0524B1B88BA8A7F
S31500005CC09A420BD8BB8A464A92F8872002FB03F316
S31500005CD04D4AA2FB03231B09BB8211E0BB8A494A3A
S31500005CE012889B1A1A464B4B1B7803FB02F3464A53
S31500005CF0A2FB03231B099AB2474B1B881344BB82A2
S31500005D00BB8A9B031A463C4B9B88B2FBF3F37B8210
S31500005D10394B9B79384904337A8A21F81320364B5C
S31500005D209B790133DAB2344B9A71334B9B791F2B33
S31500005D3002D9314B00229A710023FB600023FB75C8
S31500005D400BE0FB7D2C4A043332F813301A46FB680D
S31500005D501344FB60FB7D0133FB75FB7D1F2BF0D9E4
S31500005D602E4B1B78DBB2012B20D1244B1B889BB218
S31500005D70002B0CD01D4A137843F0080313701E4BFA
S31500005D800022A3F848201C4BB3F8483023E01B4BF5
S31500005D901B889BB2002B09D1144A13786FF3C303F7
S31500005DA013701E4B02221A7000F03AF8FB685B096A
S31500005DB09AB2114BA3F848200F4BB3F848309BB268
S31500005DC01BB2002B04DA0C4B47F6FF72A3F84820EF
S31500005DD0094BB3F8483018461837BD4680BD00BF9A
S31500005DE00020000008E0FF1F0AE0FF1F64E2FF1F1B
S31500005DF05CE2FF1F80F00F4008E1FF1F52E1FF1F2A
S31500005E009CE2FF1F02E0FF1F1F85EB5110E0FF1F02
S31500005E1004E0FF1F11E0FF1F06E0FF1F00E1FF1F68
S31500005E2080B483B000AF0023FB710BE0FB79DBB2DB
S31500005E30094A0433002122F81310FB79DBB201333F
S31500005E40DBB2FB71FB79DBB21F2BEFD900BF0C373E
S31500005E50BD465DF8047B704708E1FF1F80B485B03E
S31500005E6000AF0346FB800023FB81444B93F8883048
S31500005E70032B0CD1FA88424B9B889BB278339A420B
S31500005E8019DD404A137843F01003137013E03B4BBF
S31500005E9093F88830022B0ED13B4B1B88FA889A4226
S31500005EA004D33A4B1B88FA889A4204D9354A1378A8
S31500005EB043F010031370334B1B889BB21B0903F08E
S31500005EC00103DBB2012B03D10023FB81FB894FE0E9
S31500005ED0FB88FB81294B93F88830012B23D0274B75
S31500005EE093F88830022B1ED0244B93F88830032B6E
S31500005EF015D1234B9B889BB2FA889A4203D940F26C
S31500005F00FF33FB810FE0FA8813469B029B1A1A4661
S31500005F101B4B9B889BB2B2FBF3F3FB8103E0002390
S31500005F20FB81FB8924E01A4B1B88FA899A4203D22B
S31500005F30174B1B88FB8107E0164B1B88FA899A4290
S31500005F4002D9144B1B88FB81114B1B88FA89D31A83
S31500005F50FB81FB89642202FB03F319460D4B1A8869
S31500005F600B4B1B88D31A9BB2B1FBF3F3FB81FB8966
S31500005F7018461437BD465DF8047B704700200000C4
S31500005F802CE2FF1F64E2FF1F08E0FF1F0AE0FF1F6D
S31500005F900CE0FF1F0EE0FF1F80B582B000AF704B14
S31500005FA093F839106E4B93F83B206D4B93F83C30C9
S31500005FB0084611461A46FFF7FDFA03461A46694B8C
S31500005FC01A70674B93F83B10654B93F84420644B6B
S31500005FD093F83E30084611461A46FFF7EBFA034699
S31500005FE01A46614B1A705E4B93F83D105C4B93F862
S31500005FF03F205B4B93F84030084611461A46FFF7A0
S31500006000D9FA03461A46594B1A70554B93F83F1066
S31500006010534B93F84120524B93F8423008461146B1
S315000060201A46FFF7C7FA03461A46514B1A704C4BED
S3150000603093F84E30DBB25BB29AB2494B93F84D30CF
S31500006040DBB25BB29BB2D31AFB80454B93F8473069
S315000060509AB2434B93F84F309BB2D31A9BB2BB8094
S31500006060444B1B78DBB2012B46D1B7F90630002B27
S3150000607042DDB7F90430002B3EDD394B93F84D3045
S31500006080DAB23D4B1B78DBB252B25BB29A4205DB09
S31500006090334B93F84F20394B1A702CE0304B93F862
S315000060A04E30DAB2344B1B78DBB252B25BB29A4254
S315000060B005DC2B4B93F84720304B1A701BE0B7F9E1
S315000060C004302D4A1278D2B251B2254A92F84D20A8
S315000060D0D2B252B28A1A02FB03F31A46B7F9063055
S315000060E0B2FBF3F3DAB21E4B93F84F301344DAB235
S315000060F0224B1A7005E004E0194B93F847201F4B1A
S315000061001A70174B93F846101C4B1A78144B93F8D9
S315000061104830084611461A46FFF74CFA03461A4617
S31500006120174B1A700E4B93F89931002B12D00C4B6B
S3150000613093F896110A4B93F89821094B93F89931E5
S31500006140084611461A46FFF735FA03461A460D4B1E
S315000061501A7002E00B4B00221A700837BD4680BD4C
S315000061600020000013E0FF1F14E0FF1F15E0FF1FD3
S3150000617016E0FF1F54E2FF1F54E1FF1F19E0FF1F47
S3150000618017E0FF1F18E0FF1F80B582B000AF0023A5
S315000061907B607B4B1B78DBB2012B0AD1794B1B78DA
S315000061A0DBB2184600F0C0FA03461A46764B1A7060
S315000061B002E0754B19221A70724BDB7BDBB2184674
S315000061C000F0F6FA03461A46704B1A70704B93F8B5
S315000061D03430632B0AD86E4B93F834309B031A463F
S315000061E06C4BA3FB02235B097B6002E04FF4804308
S315000061F07B607B689AB2684B1A807B689AB2674B61
S315000062001A80634B93F84620604B1B78DBB29A42A8
S3150000621009D8634A137843F0400313705F4B00229A
S315000062201A8002F0F3F95E4B1B889BB29B0903F0C0
S315000062300103DBB2002B07D0554B93F84920534B93
S315000062401B78DBB29A4211D9554B1B889BB29B092E
S3150000625003F00103DBB2002B0ED04B4B1B78DBB2F5
S315000062605BB24B4A92F83A20934205DD4B4B002233
S315000062701A8002F0CBF928E0494B1B889BB29B0998
S3150000628003F00103DBB2002B1FD0414B93F84920EA
S315000062903E4B1B78DBB29A4217D93B4B1B78DBB2DD
S315000062A05BB23B4A92F83A2093420EDA3D4B1B888A
S315000062B09BB2002B09D13C4B1B78DBB2012B04D1DE
S315000062C0374A13786FF386131370304B1B78DAB2A4
S315000062D0364B1B789A4227D32D4B93F846202B4BEF
S315000062E01B78DBB29A421FD9314B1B78002B18D092
S315000062F02A4B1A88294B1B881846244B1B78D9B27F
S315000063002A4B1B78CB1ADBB203FB00F31946284B4A
S315000063101B78B1FBF3F39BB2D31A9AB21F4B1A80C8
S3150000632002E01E4B00221A80174B1B78DBB25BB2D1
S31500006330174A92F83920934209DD194A137843F037
S3150000634040031370144B00221A8002F05FF9144BBD
S315000063501B889BB29B0903F00103DBB2002B29D0FB
S31500006360094B1B78DBB25BB2094A92F83A2093429A
S3150000637020DD094B00221A8002F048F943E000BFF5
S3150000638054E2FF1FB8E1FF1F54E1FF1F5AE1FF1F50
S31500006390002000001F85EB511CE0FF1F1EE0FF1FC1
S315000063A064E2FF1F04E1FF1FF9E1FF1F19E0FF1F71
S315000063B017E0FF1F704B1B889BB29B0903F001037C
S315000063C0DBB2002B1FD06D4B93F849206C4B1B782A
S315000063D0DBB29A4217D96B4B1B78DBB25BB2674ACA
S315000063E092F83A2093420EDA674B1B889BB2002B39
S315000063F009D1664B1B78DBB2012B04D15E4A1378B8
S315000064006FF3861313705F4B1B78DBB25BB25B4A8C
S3150000641092F83B20934236DD5D4B1A885C4B1B8815
S315000064201946564B93F83E3003FB01F31946594B78
S31500006430A3FB01135B099BB2D31A9AB2544B1A8081
S31500006440554B1B78002B1AD0514B1B8819464D4BC8
S315000064501B78DBB2DAB2494B93F83B30D31ADBB286
S3150000646003FB01F31A464C4B1B78B2FBF3F1484B86
S315000064701A888BB2D31A9AB2454B1A805AE0444B0B
S3150000648000221A8056E03F4B1B78DBB25BB23B4AD8
S3150000649092F84420934222DB404B1B78002B1AD003
S315000064A03B4B1B881946374B1B78DBB2DAB2334BB2
S315000064B093F84430D31ADBB203FB01F31A46374B89
S315000064C01B78B2FBF3F1324B1A888BB2D31A9AB20D
S315000064D02F4B1A802EE02E4B00221A802AE0294BE1
S315000064E01B78DBB25BB2254A92F83F20934221DA51
S315000064F02B4B1B78002B1AD0254B1B8819461F4B9C
S3150000650093F83F201F4B1B78DBB2DBB2D31ADBB20A
S3150000651003FB01F31A46224B1B78B2FBF3F11C4B2B
S315000065201A888BB2D31A9AB2194B1A8002E0184B0A
S3150000653000221A80164B1A881A4B1B889A4203D8D7
S31500006540134B1B881A4602E0164B1B881A46164B3D
S315000065501B889342A8BF13469AB2144B1A80134B5A
S315000065601B889BB2B3F5805F03D2104B4FF4805269
S315000065701A800837BD4680BD64E2FF1F0020000078
S315000065805AE1FF1F54E1FF1F04E1FF1FF9E1FF1F5E
S315000065901CE0FF1F1F85EB5113E0FF1F14E0FF1FD8
S315000065A016E0FF1F1EE0FF1F1AE0FF1F58E1FF1F46
S315000065B080B500AF514B4FF480421A80504B93F890
S315000065C09531002B54D04F4B5B79DBB2E62B46D886
S315000065D04B4B93F89531012B0AD14B4B5B899BB200
S315000065E0184600F017F903461A46484B1A8009E088
S315000065F0454B5B899BB2184600F072F903461A4672
S31500006600424B1A80414B1B889AB2414B1A803F4B32
S315000066101B889BB21BB23A4A92F89621934205DB3D
S315000066203C4A137843F00803137027E0374B1B8866
S315000066309BB21BB2324A92F8972193421EDA364B2E
S315000066401B889BB2002B19D1344B1B78DBB2012B74
S3150000665014D1304A13786FF3C30313700EE02D4A3A
S3150000666013786FF3C3031370294B15221A8005E0C4
S31500006670274B15221A80254B00221A80234B1B8894
S315000066809AB2274B1A80234B1B889BB2DB0803F078
S315000066900103DBB2012B02D1184B00221A80214BD9
S315000066A01B78002B29D01E4B1B881BB2144A92F86C
S315000066B09821934221DB1A4B1B881BB2104A92F891
S315000066C09621934219DA0D4B1A880C4B1B881846F3
S315000066D0134B1B8899B20A4B93F898319BB2CB1A8D
S315000066E09BB203FB00F319460E4B1B78B1FBF3F389
S315000066F09BB2D31A9AB2014B1A8080BD1AE0FF1FD3
S3150000670000200000B8E1FF1F2CE2FF1F56E1FF1F2B
S31500006710C2E2FF1F50E2FF1F52E1FF1FF9E1FF1F18
S3150000672020E0FF1F18E0FF1F80B485B000AF0346CE
S31500006730FB710023FB730023BB7300237B73FB7980
S31500006740082B01D8732327E0FB79083BFB73FB7BFF
S31500006750DB08BB73BB7B144AD35CDAB2BB7B124942
S31500006760CB5C59B2BB7B0133DBB218460E4B1B5CCC
S315000067705BB2CB1AF97B01F0070101FB03F3DB10D7
S31500006780DBB2D31ADBB27B73084B93F843207B7BD7
S315000067901344DBB27B737B7B5BB218461437BD4672
S315000067A05DF8047B704700BFEC91000000200000FC
S315000067B080B485B000AF0346FB710023FB73FB7901
S315000067C0022B01D896231CE0FB79022B05D9FB7915
S315000067D04F2B02D88223FB7312E0FB794F2B0AD989
S315000067E0FB79FB2B07D8FB79503BFB71FB79084AF9
S315000067F0D35CFB7304E0FB79FB2B01D90023FB730D
S31500006800FB7B18461437BD465DF8047B704700BF16
S315000068100C92000080B485B000AF0346FB800023D5
S315000068207B7300237B810023FB81FB885B021A4676
S31500006830284B5B899BB2B2FBF3F33B813B89B3F5F3
S31500006840907F03D24FF6E273FB813AE03B89B3F5C2
S31500006850907F33D33B89B3F5387F2FD23B89A3F59D
S3150000686090737B817B895B099BB27B737B7B1A4A26
S3150000687032F813309AB27B7B0133DBB21946164BE2
S3150000688033F8113019B27B7B134830F813301BB242
S31500006890CB1A798901F01F0101FB03F35B119BB24F
S315000068A013449BB2FB810D4B93F84330DBB25BB2D2
S315000068B09AB2FB8913449BB2FB8102E040F2251396
S315000068C0FB81FB891BB218461437BD465DF8047B75
S315000068D0704700BF2CE2FF1FF89200000020000066
S315000068E080B485B000AF0346FB8000237B73002392
S315000068F07B810023FB81FB885B021A46284B5B8960
S315000069009BB2B2FBF3F33B813B89B3F5C77F03D25E
S315000069104FF6E273FB813AE03B89B3F5C77F34D388
S315000069203B8940F2ED2293422FD83B89A3F5C773EA
S315000069307B817B895B099BB27B737B7B194A32F82F
S3150000694013309AB27B7B0133DBB21946154B33F811
S31500006950113019B27B7B134830F813301BB2CB1AB7
S31500006960798901F01F0101FB03F35B119BB213440C
S315000069709BB2FB810C4B93F84330DBB25BB29AB20D
S31500006980FB8913449BB2FB8101E0BE23FB81FB899B
S315000069901BB218461437BD465DF8047B704700BF2E
S315000069A02CE2FF1FF89200000020000080B582B0A4
S315000069B000AF944B1B7E9BB21B029AB2914B5B7E3F
S315000069C09BB213449AB2904B1A808E4B9B7E9BB21D
S315000069D01B029AB28B4BDB7E9BB213449BB21846CA
S315000069E000F0B0FB0346BB71864B93F84C30632B2B
S315000069F002D9BB79FB710BE0BB79824A92F84C2035
S31500006A0002FB03F31A46814BA3FB02235B09FB71CE
S31500006A107C4B93F84B30DBB25BB29AB2794B93F86E
S31500006A204A30DBB25BB29BB2D31ABB80BB799AB257
S31500006A30FB799BB2D31A9BB27B80754B1B78DBB27A
S31500006A40012B40D1B7F90430002B3CDDB7F90230F9
S31500006A50002B38DD6B4B93F84A30DAB26D4B1B785E
S31500006A60DBB252B25BB29A4203DB6B4AFB7913701C
S31500006A7028E0644B93F84B30DAB2664B1B78DBB2F6
S31500006A8052B25BB29A4203DC634ABB79137019E0D7
S31500006A90B7F902305F4A1278D2B251B2594A92F827
S31500006AA04A20D2B252B28A1A02FB03F31A46B7F947
S31500006AB00430B2FBF3F3DAB2FB791344DAB2564B85
S31500006AC01A7003E002E0544ABB791370524B1B78EC
S31500006AD0DBB29BB21A4652001A44D200D31A1A46A7
S31500006AE091001A460B4613449BB2484AA2FB032365
S31500006AF05B099BB2DAB2494B1A70474B1B78DBB283
S31500006B009BB21A46D200D21A114609018A1A1344B8
S31500006B109BB23E4AA2FB03235B099BB2DAB2404B0F
S31500006B201A70384B93F83630632B0ED93B4B1A78D4
S31500006B30394B1B78DBB2104619460122FEF73AFDA7
S31500006B4003461A46374B1A7013E0344B1978324B0A
S31500006B501B78DAB22B4B93F83630C3F16403DBB201
S31500006B60084611461A46FEF725FD03461A462D4BE2
S31500006B701A70244B1B7F9BB21B029AB2214B5B7F80
S31500006B809BB213449BB2184600F0DCFA0346DAB215
S31500006B90254B1A70244B1B78DBB29BB21A46920027
S31500006BA01A4452001344DB009BB2184AA2FB03238B
S31500006BB05B099BB2DAB21D4B1A701B4B1B78DBB21A
S31500006BC09BB21A4652001A441201D31A5B009BB2BA
S31500006BD00E4AA2FB03235B099BB2DAB2144B1A706E
S31500006BE0114B1B78DAB2114B1B78104619465A2204
S31500006BF0FEF7E0FC03461A460E4B1A700837BD46F0
S31500006C0080BD00BF002000002AE0FF1F1F85EB515A
S31500006C1054E2FF1F54E1FF1F5CE1FF1F23E0FF1F4B
S31500006C2024E0FF1F25E0FF1F5DE1FF1F26E0FF1F99
S31500006C3027E0FF1F28E0FF1F80B485B000AF0023C8
S31500006C40FB8164237B7300237B8100237B60684B7D
S31500006C501B7ADAB2674B1B789A4202D800237B81F3
S31500006C6022E0634B1B7ADAB2634B1B78DBB29A42A3
S31500006C700DD3614B1B78DBB21A465E4B1B78D31AD9
S31500006C801B025E4A1278B3FBF2F37B810CE0584B91
S31500006C901B7ADBB21A46574B1B78D31A1B02574A8C
S31500006CA01278B3FBF2F37B817B89002B10D0544B17
S31500006CB01B889AB2524B1B889BB219467B8903FBF1
S31500006CC001F31B0A9BB2D31A9AB24E4B1A8004E008
S31500006CD04B4B1B889AB24B4B1A80454B1B7ADAB248
S31500006CE0494B1B789A4228D2414B1B7ADAB2474B62
S31500006CF01B78DBB29A421BD9434B1A783C4B1B7A62
S31500006D00DBB2D31ADBB29BB21A46920013441A4680
S31500006D1091001A460B4613449B009BB21A463C4B05
S31500006D201B7892FBF3F3DBB2C3F164037B7306E0DB
S31500006D30384B93F836307B7301E064237B737B7B9F
S31500006D409AB2344B93F835309BB212FB03F39BB2E5
S31500006D50314AA2FB03235B099BB27B732F4B1B6853
S31500006D607B607B68642202FB03F3DB0BDAB22C4BFD
S31500006D701A702B4B1B78642B02D9294B64221A708C
S31500006D80274B1B787A7B9A420CD27B7B1C4A128853
S31500006D9092B202FB03F31A46214B1B78B2FBF3F3C4
S31500006DA0FB8102E0164B1B88FB811E4B1B889BB2A6
S31500006DB05B0803F00103DBB2012B09D1FB895A22E0
S31500006DC002FB03F31A46144BA3FB02235B09FB8168
S31500006DD0FB89B3F5006F02D24FF40063FB81124AC0
S31500006DE0FB8913801437BD465DF8047B704700BFEE
S31500006DF0B8E1FF1F26E0FF1F5DE1FF1F28E0FF1F30
S31500006E0058E1FF1F9EE2FF1F23E0FF1F5CE1FF1F0B
S31500006E1025E0FF1F002000001F85EB51A4E0FF1FA7
S31500006E2022E0FF1F50E2FF1FB8E2FF1F80B582B0CD
S31500006E3000AF0023FB80174B1B683F2B0ED8154B6A
S31500006E401B680133134A1360134B1B8A9BB21A4605
S31500006E50124B1B681344114A136018E00F4B1B6852
S31500006E609B09FB80FB88184600F0E0F803461A46AB
S31500006E700B4B1A800A4B1B889BB29B099AB2094B93
S31500006E801A80064B00221A60024B00221A6008374D
S31500006E90BD4680BD2CE0FF1F2CE2FF1F30E0FF1F28
S31500006EA05EE1FF1F60E1FF1F80B582B000AF0023E7
S31500006EB0FB714F4B1B78132B10D84D4B1B780133AE
S31500006EC0DAB24B4B1A704B4B1B7ADBB29AB24A4B77
S31500006ED01B8813449AB2484B1A8032E0464B1B88F3
S31500006EE01A46434B1B78B2FBF3F3FB71424B00226D
S31500006EF01A803F4B00221A70404B1B78DBB2FA799E
S31500006F009A421BD23E4B1B780E2B06D83C4B1B7865
S31500006F100133DAB23A4B1A7013E03A4B00221A7078
S31500006F20394A137843F001031370384B01221A7063
S31500006F3001F06CFB324B00221A7002E0304B00224B
S31500006F401A70334B1B78DBB2012B10D1294B1B7AFD
S31500006F50DAB2304B1B789A4209D82F4B5B7C03F090
S31500006F604003DBB2002B02D0294B00221A70284BBB
S31500006F701B78DBB2002B09D1284B1B78DBB2002B28
S31500006F8004D1214A13786FF3410313701F4B1B780A
S31500006F90DBB2002B28D01D4B1B78DBB20133DAB2F3
S31500006FA01A4B1A70194B1B78DBB2312B1CD91C4BB0
S31500006FB01B889BB2002B14D11A4B1B78DBB2012B1A
S31500006FC00FD10C4B1B7ADAB2174B1B789A4208D3B7
S31500006FD00E4B00221A700C4A13786FF300031370DD
S31500006FE002E00A4B01221A700837BD4680BD00BF79
S31500006FF034E0FF1FB8E1FF1F36E0FF1F5CE1FF1F13
S3150000700038E0FF1F7DE0FF1F64E2FF1F52E2FF1F13
S31500007010C4E2FF1F27E0FF1F80F00F4053E2FF1F6F
S3150000702004E1FF1FF9E1FF1F24E0FF1F80B485B0D4
S3150000703000AF0346FB800023FB813A4B1B88482B9D
S3150000704026D0482B0BDC242B16D0242B02DC182B45
S3150000705012D05AE0302B0FD03C2B19D055E0782BAC
S315000070602DD0782B02DC602B1ED04EE0902B31D039
S31500007070B3F5A07F3AD048E0FB884FF4487202FB94
S3150000708003F31A46284BA3FB0223DB09FB8141E0ED
S31500007090FB884FF4C86202FB03F31A46234BA3FB9B
S315000070A002231B0AFB8135E0FB88642202FB03F303
S315000070B01A461F4BA3FB02239B08FB812AE0FB8891
S315000070C0C82202FB03F31A461A4BA3FB02231B0931
S315000070D0FB811FE0FB884FF4C86202FB03F31A46EC
S315000070E0154BA3FB02239B09FB8113E0FB884FF49E
S315000070F0C86202FB03F31A46104BA3FB0213D21A13
S31500007100520813445B09FB8104E00D4A137843F0EF
S3150000711002031370FB8918461437BD465DF8047BDD
S31500007120704700BF2AE0FF1F2F316BA1CF8BD4F130
S315000071304FECC44EC94216B253D9DE750541100450
S3150000714064E2FF1F80B485B000AF0346FB800023D6
S31500007150FB81644B1B88482B36D0482B0BDC242B39
S3150000716017D0242B02DC182B13D0AEE0302B10D016
S315000071703C2B29D0A9E0782B5AD0782B02DC602B47
S315000071803ED0A2E0902B6BD0B3F5A07F00F08380B9
S315000071909BE0FB881A4692001344DB009AB2FB88F8
S315000071A0194649000B445B009BB24F49A1FB0313F0
S315000071B0DB089BB2DBB29BB213449BB24A4AA2FBEA
S315000071C00323DB08FB8185E0FB881A465200134443
S315000071D01A46D1001A460B4613449AB2FB885B0046
S315000071E09BB24149A1FB0313DB089BB2DBB29BB206
S315000071F013449BB23C4AA2FB0323DB08FB8169E0F4
S31500007200FB881A46920013449B009AB2FB88DB0067
S315000072109BB23549A1FB0313DB089BB2DBB29BB2E1
S3150000722013449BB2304AA2FB0323DB08FB8151E0E7
S31500007230FB881A46D20013445B009AB2FB889B0077
S315000072409BB22949A1FB0313DB089BB2DBB29BB2BD
S3150000725013449BB2244AA2FB0323DB08FB8139E0DB
S31500007260FB881A4652001A44920013449AB2FB88CD
S315000072701946C9000B449BB21B49A1FB0313DB084B
S315000072809BB2DBB29BB213449BB2174AA2FB032309
S31500007290DB08FB811EE0FB881A46520013445B00A4
S315000072A09AB2FB88194649000B449BB20E49A1FBD2
S315000072B00313DB089BB2DBB29BB213449BB20A4AB0
S315000072C0A2FB0323DB08FB8104E0084A137843F0A2
S315000072D002031370FB8918461437BD465DF8047B1C
S315000072E0704700BF2AE0FF1FCDCCCCCC64E2FF1F65
S315000072F080B500AF624B1968624BA3FB01231A09E4
S3150000730013469B0013449B00CA1A002A39D15C4BD2
S3150000731000221A605C4B1B78DBB2002B00F08A80DF
S315000073205A4B1B78DBB2002B00F08480584B1B882D
S315000073309BB21BB2002B09DB554B1B889BB21BB2C1
S31500007340544A9361534B0022DA6108E0514B002204
S315000073509A614F4B1B889BB21BB24E4AD3614E4B70
S315000073609B6A4C4A53624C4B5B6A4A4A13624948D1
S3150000737000F032FA474B9B6A9BB21BB2474AD36076
S3150000738058E03F4B1968464BA3FB0123DA08134626
S315000073905B0013449B00CA1A002A02D103F092F93B
S315000073A048E0374B1B6803F00F03002B42D13D4BDF
S315000073B01B78002B1DD1384BDB6A3B4A128893425F
